S01C00004350453332395F46696E616C5F50726F6A6563742E7372656313
S11300000C9434000C9446000C9446000C94460066
S11300100C9446000C9446000C9446000C94460044
S11300200C9446000C9446000C9446000C94460034
S11300300C9446000C9446000C9446000C94460024
S11300400C9446000C9446000C9446000C94460014
S11300500C9446000C9446000C9446000C94460004
S11300600C9446000C94460011241FBECFEFD8E038
S1130070DEBFCDBF21E0A0E0B1E001C01D92A831F8
S1130080B207E1F70E945C000C9485010C94000017
S11300905798569A5F9A5E9A5D9A089583EA84BD4A
S11300A081E085BD90E897BD109280008093810027
S11300B080936F0086BB0895CF93DF9300D000D068
S11300C000D0CDB7DEB70E9448000E944E000E94C7
S11300D017018FE30E9492008FEF482F1C821B822E
S11300E01E821D8220E030E05FE060E07C8180E0E1
S11300F09E810E943F01FFCF45B121E030E0B9016C
S113010002C0660F771F8A95E2F7CB01462B45B9EB
S113011095B18095892385B908958EBD0DB407FEE8
S1130120FDCF08950F931F93CF93DF93803408F08E
S11301308FE32A9A282F30E0A901440F551F440F5A
S1130140551F082F02950F70042BA9014295529553
S1130150507F5427407F5427182F16951695142B3B
S11301600024369527950794369527950794322FC2
S1130170202DD82FD22BC4E0802F0E948D00812FF8
S11301800E948D008D2F0E948D00C150A9F783E03D
S11301900E947C002A98DF91CF911F910F910895BE
S11301A09B01220F331F620F731F660F771F660FA9
S11301B0771F9B01772314F4295F3F4F35952795CB
S11301C0359527953595279567707078772334F49E
S11301D061507109686F7F6F6F5F7F4F4FEF50E021
S11301E0062E02C0559547950A94E2F7D901A0500E
S11301F0BF4FFA01E823F92301C0EE0F6A95EAF72D
S1130200EC934F30510521F06FE070E044E003C0FF
S11302106FEF70E040E0F901E050FF4F8623972331
S113022002C0880F991F4A95E2F78183089584B12B
S1130230886284B981E58CBDE0E0F1E088E191E079
S11302401192E817F907E1F708958EBD0DB407FE82
S1130250FDCF08950F931F93CF93DF93C8E1D1E0AF
S113026000E011E08A910E942501C017D107D1F75F
S11302702B9A2B98DF91CF911F910F910895CF92D4
S1130280DF92EF92FF920F931F93CF93DF9300D0EF
S113029000D000D0CDB7DEB749835A836B837C830B
S11302A08D839E8389819A81CB80DC80ED80FE8062
S11302B025303105C8F48901000F111F020F131FE7
S11302C0B8010E94D000B8016F5F7F4FC6010E9441
S11302D0D000B8016E5F7F4FC7010E94D0000E941A
S11302E02A0180E090E002C08EEF9FEF26960FB6C1
S11302F0F894DEBF0FBECDBFDF91CF911F910F9158
S1110300FF90EF90DF90CF900895F894FFCF18
S9030000FC
