S01C00004350453332395F46696E616C5F50726F6A6563742E7372656313
S11300000C9434000C943E000C943E000C943E007E
S11300100C943E000C943E000C943E000C943E0064
S11300200C943E000C943E000C943E000C943E0054
S11300300C943E000C943E000C943E000C943E0044
S11300400C943E000C943E000C943E000C943E0034
S11300500C943E000C943E000C943E000C943E0024
S11300600C943E000C943E0011241FBECFEFD8E048
S1130070DEBFCDBF0E9451000C945C000C940000C4
S11300805798259A5F9A089529B130E0A90102C0D2
S1130090559547958A95E2F7CA0151E08527817005
S11300A008950E94400087E00E944400882311F0D4
S10F00B02D9AF9CF2D98F7CFF894FFCFCC
S9030000FC
