S01C00004350453332395F46696E616C5F50726F6A6563742E7372656313
S11300000C9434000C9446000C9446000C949E000E
S11300100C9475000C9477000C9446000C944600E4
S11300200C9446000C9446000C9446000C94460034
S11300300C9446000C9479000C9446000C944600F1
S11300400C9446000C9446000C9446000C94460014
S11300500C9446000C9446000C9446000C94460004
S11300600C9446000C94460011241FBECFEFD8E038
S1130070DEBFCDBF21E0A0E0B1E001C01D92A830F9
S1130080B207E1F70E946D000C9459010C94000032
S11300905798259A5F9A5E9A5D9A5C9A5B9A5A9AE7
S11300A008951092800081E08093810080936F0016
S11300B086BB08950895A0918400B091850020E442
S11300C032E44FE050E00E941D0120E034E244EFAE
S11300D050E00E94FE00C90108950E9448000E9459
S11300E051000E945A007894FFCF0C949E000C9407
S11300F09E001F920F920FB60F9211248F939F931D
S1130100AF93BF938091040190910501A0910601E2
S1130110B0910701905FAF4FBF4F8093040190935C
S11301200501A0930601B0930701BF91AF919F9180
S11301308F910F900FBE0F901F9018951F920F92E2
S11301400FB60F9211242F933F934F935F936F93A6
S11301507F938F939F93AF93BF93EF93FF930E94EB
S11301605B0040910401509105016091060170917A
S11301700701480F591F611D711D409304015093DD
S11301800501609306017093070180910401909129
S11301900501A0910601B0910701809100019091A1
S11301A00101A0910201B091030180910401909199
S11301B00501A0910601B09107018093000190937D
S11301C00101A0930201B093030110920401109263
S11301D005011092060110920701FF91EF91BF9162
S11301E0AF919F918F917F916F915F914F913F91CB
S11301F02F910F900FBE0F901F901895052E97FB0F
S11302001EF400940E94150157FD07D00E94280196
S113021007FC03D04EF40C9415015095409530958D
S113022021953F4F4F4F5F4F08959095809570955E
S113023061957F4F8F4F9F4F08950E944A01A59F5C
S1130240900DB49F900DA49F800D911D11240895CD
S1130250A1E21A2EAA1BBB1BFD010DC0AA1FBB1FC6
S1130260EE1FFF1FA217B307E407F50720F0A21B38
S1130270B30BE40BF50B661F771F881F991F1A94A5
S113028069F760957095809590959B01AC01BD01CF
S1130290CF010895A29FB001B39FC001A39F700D29
S11302A0811D1124911DB29F700D811D1124911D7A
S10902B00895F894FFCF4D
S9030000FC
