S01C00004350453332395F46696E616C5F50726F6A6563742E7372656313
S11300000C9434000C9446000C9446000C94460066
S11300100C9446000C9446000C9446000C94460044
S11300200C9446000C9446000C9446000C94460034
S11300300C9446000C9446000C9446000C94460024
S11300400C9446000C9446000C9446000C94460014
S11300500C9446000C9446000C9446000C94460004
S11300600C9446000C94460011241FBECFEFD8E038
S1130070DEBFCDBF21E0A0E0B1E001C01D92A831F8
S1130080B207E1F70E9466000C94FD000C94000096
S11300905798539A5F9A5E9A5D9A089510928000D9
S11300A081E08093810080936F0086BB83E280931C
S11300B0B000E1EBF0E088E080831092B40083E0CC
S11300C08093B30080818160808308950E944800FA
S11300D00E944E000E94EF008FE30E948B005C9A06
S11300E08FEF9FE00E94C900FFCF45B121E030E0CF
S11300F0B90102C0660F771F8A95E2F7CB01462B40
S113010045B995B18095892385B908958EBD0DB4FF
S113011007FEFDCF08950F931F93CF93DF93803491
S113012008F08FE32A9A282F30E0A901440F551FC5
S1130130440F551F082F02950F70042BA9014295F7
S11301405295507F5427407F5427182F16951695A3
S1130150142B0024369527950794369527950794F4
S1130160322F202DD82FD22BC4E0802F0E9486005E
S1130170812F0E9486008D2F0E948600C150A9F70E
S113018086E00E9475002A98DF91CF911F910F910C
S113019008951F93CF93DF93811520E1920710F008
S11301A08FEF9FE02A989C01329522952F70232788
S11301B03F702327122FD82FD295D07FD92BC7E198
S11301C0812F0E9486008D2F0E948600C150C1F7A6
S11301D086E00E947500DF91CF911F91089584B14C
S11301E0886284B981E58CBDE0E0F1E088E191E0CA
S11101F01192E817F907E1F70895F894FFCF8C
S9030000FC
