S01C00004350453332395F46696E616C5F50726F6A6563742E7372656313
S11300000C9434000C943E000C943E000C943E007E
S11300100C943E000C943E000C943E000C943E0064
S11300200C943E000C943E000C943E000C943E0054
S11300300C943E000C943E000C943E000C943E0044
S11300400C943E000C943E000C943E000C943E0034
S11300500C943E000C943E000C943E000C943E0024
S11300600C943E000C943E0011241FBECFEFD8E048
S1130070DEBFCDBF0E9456000C9461000C940000BA
S11300805798259A5F9A5E9A5D9A5C9A5B9A5A9AF7
S1130090089529B130E0A90102C0559547958A9584
S11300A0E2F7CA0151E08527817008950E9440005B
S11300B086E00E944900882311F02D9AF9CF2D98EB
S10900C0F7CFF894FFCF16
S9030000FC
